{
  "contractName": "AddressBook",
  "abi": [
    {
      "constant": false,
      "inputs": [
        {
          "internalType": "string",
          "name": "_temp",
          "type": "string"
        }
      ],
      "name": "stringToBytes32",
      "outputs": [
        {
          "internalType": "bytes32",
          "name": "result",
          "type": "bytes32"
        }
      ],
      "payable": false,
      "stateMutability": "nonpayable",
      "type": "function"
    },
    {
      "constant": true,
      "inputs": [
        {
          "internalType": "string",
          "name": "_temp",
          "type": "string"
        }
      ],
      "name": "getstringToBytes32",
      "outputs": [
        {
          "internalType": "bytes32",
          "name": "result",
          "type": "bytes32"
        }
      ],
      "payable": false,
      "stateMutability": "view",
      "type": "function"
    },
    {
      "constant": false,
      "inputs": [
        {
          "internalType": "string",
          "name": "_yourname",
          "type": "string"
        },
        {
          "internalType": "address",
          "name": "_tokenAddress",
          "type": "address"
        }
      ],
      "name": "setHistory",
      "outputs": [],
      "payable": false,
      "stateMutability": "nonpayable",
      "type": "function"
    },
    {
      "constant": true,
      "inputs": [
        {
          "internalType": "string",
          "name": "_query1",
          "type": "string"
        }
      ],
      "name": "getTokenAddress",
      "outputs": [
        {
          "internalType": "address",
          "name": "",
          "type": "address"
        }
      ],
      "payable": false,
      "stateMutability": "view",
      "type": "function"
    },
    {
      "constant": true,
      "inputs": [
        {
          "internalType": "string",
          "name": "_query2",
          "type": "string"
        }
      ],
      "name": "getUserAddress",
      "outputs": [
        {
          "internalType": "address",
          "name": "",
          "type": "address"
        }
      ],
      "payable": false,
      "stateMutability": "view",
      "type": "function"
    }
  ],
  "bytecode": "0x608060405234801561001057600080fd5b50610696806100206000396000f3fe608060405234801561001057600080fd5b50600436106100575760003560e01c80634985e85c1461005c578063c409123614610157578063cfb5192814610252578063df1ac9b414610321578063f67be732146103fc575b600080fd5b6101156004803603602081101561007257600080fd5b810190808035906020019064010000000081111561008f57600080fd5b8201836020820111156100a157600080fd5b803590602001918460018302840111640100000000831117156100c357600080fd5b91908080601f016020809104026020016040519081016040528093929190818152602001838380828437600081840152601f19601f8201169050808301925050505050505091929192905050506104cb565b604051808273ffffffffffffffffffffffffffffffffffffffff1673ffffffffffffffffffffffffffffffffffffffff16815260200191505060405180910390f35b6102106004803603602081101561016d57600080fd5b810190808035906020019064010000000081111561018a57600080fd5b82018360208201111561019c57600080fd5b803590602001918460018302840111640100000000831117156101be57600080fd5b91908080601f016020809104026020016040519081016040528093929190818152602001838380828437600081840152601f19601f82011690508083019250505050505050919291929050505061050f565b604051808273ffffffffffffffffffffffffffffffffffffffff1673ffffffffffffffffffffffffffffffffffffffff16815260200191505060405180910390f35b61030b6004803603602081101561026857600080fd5b810190808035906020019064010000000081111561028557600080fd5b82018360208201111561029757600080fd5b803590602001918460018302840111640100000000831117156102b957600080fd5b91908080601f016020809104026020016040519081016040528093929190818152602001838380828437600081840152601f19601f820116905080830192505050505050509192919290505050610554565b6040518082815260200191505060405180910390f35b6103fa6004803603604081101561033757600080fd5b810190808035906020019064010000000081111561035457600080fd5b82018360208201111561036657600080fd5b8035906020019184600183028401116401000000008311171561038857600080fd5b91908080601f016020809104026020016040519081016040528093929190818152602001838380828437600081840152601f19601f820116905080830192505050505050509192919290803573ffffffffffffffffffffffffffffffffffffffff16906020019092919050505061057f565b005b6104b56004803603602081101561041257600080fd5b810190808035906020019064010000000081111561042f57600080fd5b82018360208201111561044157600080fd5b8035906020019184600183028401116401000000008311171561046357600080fd5b91908080601f016020809104026020016040519081016040528093929190818152602001838380828437600081840152601f19601f820116905080830192505050505050509192919290505050610636565b6040518082815260200191505060405180910390f35b60008060006104d984610636565b815260200190815260200160002060009054906101000a900473ffffffffffffffffffffffffffffffffffffffff169050919050565b60006001600061051e84610636565b815260200190815260200160002060009054906101000a900473ffffffffffffffffffffffffffffffffffffffff169050919050565b60006060829050600081511415610571576000801b91505061057a565b60208101519150505b919050565b3360008061058c85610554565b815260200190815260200160002060006101000a81548173ffffffffffffffffffffffffffffffffffffffff021916908373ffffffffffffffffffffffffffffffffffffffff16021790555080600160006105e685610554565b815260200190815260200160002060006101000a81548173ffffffffffffffffffffffffffffffffffffffff021916908373ffffffffffffffffffffffffffffffffffffffff1602179055505050565b60006060829050600081511415610653576000801b91505061065c565b60208101519150505b91905056fea265627a7a72315820b53961245174e8bee63991f3fe37cc21de7c195d132b1318e24325397c1c84f564736f6c63430005100032",
  "source": "pragma solidity ^0.5.0;\r\n\r\ncontract AddressBook {\r\n    \r\n    mapping(bytes32 => address) addressBook;\r\n    mapping(bytes32 => address) tokenAddress;\r\n    \r\n    function stringToBytes32(string memory _temp) public returns (bytes32 result) {\r\n        bytes memory tempstring=bytes(_temp);\r\n        if(tempstring.length == 0){\r\n            return 0x0;\r\n            \r\n        }\r\n        assembly {\r\n            result:=mload(add(tempstring,32))\r\n        }\r\n        \r\n    }\r\n    \r\n     function getstringToBytes32(string memory _temp) public view returns (bytes32 result) {\r\n        bytes memory tempstring=bytes(_temp);\r\n        if(tempstring.length == 0){\r\n            return 0x0;\r\n            \r\n        }\r\n        assembly {\r\n            result:=mload(add(tempstring,32))\r\n        }\r\n        \r\n     }\r\n    \r\n    function setHistory(string memory _yourname,address _tokenAddress) public {\r\n        addressBook[stringToBytes32(_yourname)] = msg.sender;\r\n        tokenAddress[stringToBytes32(_yourname)] = _tokenAddress;\r\n    }\r\n    \r\n    function getTokenAddress(string memory _query1) public view returns (address) {\r\n        return tokenAddress[getstringToBytes32(_query1)];\r\n    }\r\n    \r\n    function getUserAddress(string memory _query2) public view returns (address) {\r\n        return addressBook[getstringToBytes32(_query2)];\r\n    }\r\n    \r\n}",
  "sourcePath": "C:\\Users\\lazypuppet\\SocialStreams\\contracts\\AddressBook.sol",
  "compiler": {
    "name": "solc",
    "version": "0.5.16+commit.9c3226ce.Emscripten.clang"
  },
  "schemaVersion": "3.0.23",
  "updatedAt": "2020-03-02T02:45:10.642Z",
  "devdoc": {
    "methods": {}
  },
  "userdoc": {
    "methods": {}
  }
}