{
  "contractName": "Sablier",
  "abi": [
    {
      "inputs": [],
      "payable": false,
      "stateMutability": "nonpayable",
      "type": "constructor"
    },
    {
      "anonymous": false,
      "inputs": [
        {
          "indexed": true,
          "internalType": "uint256",
          "name": "streamId",
          "type": "uint256"
        },
        {
          "indexed": true,
          "internalType": "address",
          "name": "confirmer",
          "type": "address"
        },
        {
          "indexed": false,
          "internalType": "address",
          "name": "newTokenAddress",
          "type": "address"
        },
        {
          "indexed": false,
          "internalType": "uint256",
          "name": "newStopBlock",
          "type": "uint256"
        },
        {
          "indexed": false,
          "internalType": "uint256",
          "name": "newPayment",
          "type": "uint256"
        },
        {
          "indexed": false,
          "internalType": "uint256",
          "name": "newInterval",
          "type": "uint256"
        }
      ],
      "name": "ConfirmUpdate",
      "type": "event"
    },
    {
      "anonymous": false,
      "inputs": [
        {
          "indexed": true,
          "internalType": "uint256",
          "name": "streamId",
          "type": "uint256"
        },
        {
          "indexed": true,
          "internalType": "address",
          "name": "sender",
          "type": "address"
        },
        {
          "indexed": true,
          "internalType": "address",
          "name": "recipient",
          "type": "address"
        },
        {
          "indexed": false,
          "internalType": "address",
          "name": "tokenAddress",
          "type": "address"
        },
        {
          "indexed": false,
          "internalType": "uint256",
          "name": "startBlock",
          "type": "uint256"
        },
        {
          "indexed": false,
          "internalType": "uint256",
          "name": "stopBlock",
          "type": "uint256"
        },
        {
          "indexed": false,
          "internalType": "uint256",
          "name": "payment",
          "type": "uint256"
        },
        {
          "indexed": false,
          "internalType": "uint256",
          "name": "interval",
          "type": "uint256"
        },
        {
          "indexed": false,
          "internalType": "uint256",
          "name": "deposit",
          "type": "uint256"
        }
      ],
      "name": "CreateStream",
      "type": "event"
    },
    {
      "anonymous": false,
      "inputs": [
        {
          "indexed": true,
          "internalType": "uint256",
          "name": "streamId",
          "type": "uint256"
        },
        {
          "indexed": true,
          "internalType": "address",
          "name": "sender",
          "type": "address"
        },
        {
          "indexed": true,
          "internalType": "address",
          "name": "recipient",
          "type": "address"
        },
        {
          "indexed": false,
          "internalType": "address",
          "name": "tokenAddress",
          "type": "address"
        },
        {
          "indexed": false,
          "internalType": "uint256",
          "name": "startBlock",
          "type": "uint256"
        },
        {
          "indexed": false,
          "internalType": "uint256",
          "name": "stopBlock",
          "type": "uint256"
        },
        {
          "indexed": false,
          "internalType": "uint256",
          "name": "payment",
          "type": "uint256"
        },
        {
          "indexed": false,
          "internalType": "uint256",
          "name": "interval",
          "type": "uint256"
        }
      ],
      "name": "CreateStream",
      "type": "event"
    },
    {
      "anonymous": false,
      "inputs": [
        {
          "indexed": true,
          "internalType": "uint256",
          "name": "streamId",
          "type": "uint256"
        },
        {
          "indexed": true,
          "internalType": "address",
          "name": "sender",
          "type": "address"
        },
        {
          "indexed": true,
          "internalType": "address",
          "name": "recipient",
          "type": "address"
        },
        {
          "indexed": false,
          "internalType": "address",
          "name": "newTokenAddress",
          "type": "address"
        },
        {
          "indexed": false,
          "internalType": "uint256",
          "name": "newStopBlock",
          "type": "uint256"
        },
        {
          "indexed": false,
          "internalType": "uint256",
          "name": "newPayment",
          "type": "uint256"
        },
        {
          "indexed": false,
          "internalType": "uint256",
          "name": "newInterval",
          "type": "uint256"
        }
      ],
      "name": "ExecuteUpdate",
      "type": "event"
    },
    {
      "anonymous": false,
      "inputs": [
        {
          "indexed": true,
          "internalType": "uint256",
          "name": "streamId",
          "type": "uint256"
        },
        {
          "indexed": true,
          "internalType": "address",
          "name": "sender",
          "type": "address"
        },
        {
          "indexed": true,
          "internalType": "address",
          "name": "recipient",
          "type": "address"
        },
        {
          "indexed": false,
          "internalType": "uint256",
          "name": "senderAmount",
          "type": "uint256"
        },
        {
          "indexed": false,
          "internalType": "uint256",
          "name": "recipientAmount",
          "type": "uint256"
        }
      ],
      "name": "RedeemStream",
      "type": "event"
    },
    {
      "anonymous": false,
      "inputs": [
        {
          "indexed": true,
          "internalType": "uint256",
          "name": "streamId",
          "type": "uint256"
        },
        {
          "indexed": true,
          "internalType": "address",
          "name": "revoker",
          "type": "address"
        },
        {
          "indexed": false,
          "internalType": "address",
          "name": "newTokenAddress",
          "type": "address"
        },
        {
          "indexed": false,
          "internalType": "uint256",
          "name": "newStopBlock",
          "type": "uint256"
        },
        {
          "indexed": false,
          "internalType": "uint256",
          "name": "newPayment",
          "type": "uint256"
        },
        {
          "indexed": false,
          "internalType": "uint256",
          "name": "newInterval",
          "type": "uint256"
        }
      ],
      "name": "RevokeUpdate",
      "type": "event"
    },
    {
      "anonymous": false,
      "inputs": [
        {
          "indexed": true,
          "internalType": "uint256",
          "name": "streamId",
          "type": "uint256"
        },
        {
          "indexed": true,
          "internalType": "address",
          "name": "recipient",
          "type": "address"
        },
        {
          "indexed": false,
          "internalType": "uint256",
          "name": "amount",
          "type": "uint256"
        }
      ],
      "name": "WithdrawFromStream",
      "type": "event"
    },
    {
      "constant": true,
      "inputs": [
        {
          "internalType": "uint256",
          "name": "_streamId",
          "type": "uint256"
        },
        {
          "internalType": "address",
          "name": "_addr",
          "type": "address"
        }
      ],
      "name": "balanceOf",
      "outputs": [
        {
          "internalType": "uint256",
          "name": "balance",
          "type": "uint256"
        }
      ],
      "payable": false,
      "stateMutability": "view",
      "type": "function"
    },
    {
      "constant": true,
      "inputs": [
        {
          "internalType": "uint256",
          "name": "_streamId",
          "type": "uint256"
        }
      ],
      "name": "getStream",
      "outputs": [
        {
          "internalType": "address",
          "name": "sender",
          "type": "address"
        },
        {
          "internalType": "address",
          "name": "recipient",
          "type": "address"
        },
        {
          "internalType": "address",
          "name": "tokenAddress",
          "type": "address"
        },
        {
          "internalType": "uint256",
          "name": "balance",
          "type": "uint256"
        },
        {
          "internalType": "uint256",
          "name": "startBlock",
          "type": "uint256"
        },
        {
          "internalType": "uint256",
          "name": "stopBlock",
          "type": "uint256"
        },
        {
          "internalType": "uint256",
          "name": "payment",
          "type": "uint256"
        },
        {
          "internalType": "uint256",
          "name": "interval",
          "type": "uint256"
        }
      ],
      "payable": false,
      "stateMutability": "view",
      "type": "function"
    },
    {
      "constant": true,
      "inputs": [
        {
          "internalType": "uint256",
          "name": "_streamId",
          "type": "uint256"
        },
        {
          "internalType": "address",
          "name": "_addr",
          "type": "address"
        }
      ],
      "name": "getUpdate",
      "outputs": [
        {
          "internalType": "bool",
          "name": "active",
          "type": "bool"
        }
      ],
      "payable": false,
      "stateMutability": "view",
      "type": "function"
    },
    {
      "constant": false,
      "inputs": [
        {
          "internalType": "address",
          "name": "_sender",
          "type": "address"
        },
        {
          "internalType": "address",
          "name": "_recipient",
          "type": "address"
        },
        {
          "internalType": "address",
          "name": "_tokenAddress",
          "type": "address"
        },
        {
          "internalType": "uint256",
          "name": "_startBlock",
          "type": "uint256"
        },
        {
          "internalType": "uint256",
          "name": "_stopBlock",
          "type": "uint256"
        },
        {
          "internalType": "uint256",
          "name": "_payment",
          "type": "uint256"
        },
        {
          "internalType": "uint256",
          "name": "_interval",
          "type": "uint256"
        }
      ],
      "name": "createStream",
      "outputs": [],
      "payable": false,
      "stateMutability": "nonpayable",
      "type": "function"
    },
    {
      "constant": false,
      "inputs": [
        {
          "internalType": "uint256",
          "name": "_streamId",
          "type": "uint256"
        },
        {
          "internalType": "uint256",
          "name": "_amount",
          "type": "uint256"
        }
      ],
      "name": "withdrawFromStream",
      "outputs": [],
      "payable": false,
      "stateMutability": "nonpayable",
      "type": "function"
    },
    {
      "constant": false,
      "inputs": [
        {
          "internalType": "uint256",
          "name": "_streamId",
          "type": "uint256"
        }
      ],
      "name": "redeemStream",
      "outputs": [],
      "payable": false,
      "stateMutability": "nonpayable",
      "type": "function"
    },
    {
      "constant": false,
      "inputs": [
        {
          "internalType": "uint256",
          "name": "_streamId",
          "type": "uint256"
        },
        {
          "internalType": "address",
          "name": "_tokenAddress",
          "type": "address"
        },
        {
          "internalType": "uint256",
          "name": "_stopBlock",
          "type": "uint256"
        },
        {
          "internalType": "uint256",
          "name": "_payment",
          "type": "uint256"
        },
        {
          "internalType": "uint256",
          "name": "_interval",
          "type": "uint256"
        }
      ],
      "name": "confirmUpdate",
      "outputs": [],
      "payable": false,
      "stateMutability": "nonpayable",
      "type": "function"
    },
    {
      "constant": false,
      "inputs": [
        {
          "internalType": "uint256",
          "name": "_streamId",
          "type": "uint256"
        },
        {
          "internalType": "address",
          "name": "_tokenAddress",
          "type": "address"
        },
        {
          "internalType": "uint256",
          "name": "_stopBlock",
          "type": "uint256"
        },
        {
          "internalType": "uint256",
          "name": "_payment",
          "type": "uint256"
        },
        {
          "internalType": "uint256",
          "name": "_interval",
          "type": "uint256"
        }
      ],
      "name": "revokeUpdate",
      "outputs": [],
      "payable": false,
      "stateMutability": "nonpayable",
      "type": "function"
    }
  ],
  "bytecode": "0x608060405234801561001057600080fd5b50600180819055506136bb806100276000396000f3fe608060405234801561001057600080fd5b50600436106100885760003560e01c80637a9b2c6c1161005b5780637a9b2c6c146101ef578063894e9a0d14610227578063c5daca921461031e578063c765e1f01461038a57610088565b806326d056cc1461008d5780633656eec2146100f35780634a97919c1461015557806363aef68214610183575b600080fd5b6100d9600480360360408110156100a357600080fd5b8101908080359060200190929190803573ffffffffffffffffffffffffffffffffffffffff169060200190929190505050610436565b604051808215151515815260200191505060405180910390f35b61013f6004803603604081101561010957600080fd5b8101908080359060200190929190803573ffffffffffffffffffffffffffffffffffffffff169060200190929190505050610578565b6040518082815260200191505060405180910390f35b6101816004803603602081101561016b57600080fd5b810190808035906020019092919050505061090e565b005b6101ed600480360360a081101561019957600080fd5b8101908080359060200190929190803573ffffffffffffffffffffffffffffffffffffffff169060200190929190803590602001909291908035906020019092919080359060200190929190505050611159565b005b6102256004803603604081101561020557600080fd5b810190808035906020019092919080359060200190929190505050611484565b005b6102536004803603602081101561023d57600080fd5b8101908080359060200190929190505050611bbd565b604051808973ffffffffffffffffffffffffffffffffffffffff1673ffffffffffffffffffffffffffffffffffffffff1681526020018873ffffffffffffffffffffffffffffffffffffffff1673ffffffffffffffffffffffffffffffffffffffff1681526020018773ffffffffffffffffffffffffffffffffffffffff1673ffffffffffffffffffffffffffffffffffffffff1681526020018681526020018581526020018481526020018381526020018281526020019850505050505050505060405180910390f35b610388600480360360a081101561033457600080fd5b8101908080359060200190929190803573ffffffffffffffffffffffffffffffffffffffff169060200190929190803590602001909291908035906020019092919080359060200190929190505050611e7a565b005b610434600480360360e08110156103a057600080fd5b81019080803573ffffffffffffffffffffffffffffffffffffffff169060200190929190803573ffffffffffffffffffffffffffffffffffffffff169060200190929190803573ffffffffffffffffffffffffffffffffffffffff1690602001909291908035906020019092919080359060200190929190803590602001909291908035906020019092919050505061203b565b005b600082600073ffffffffffffffffffffffffffffffffffffffff1660008083815260200190815260200160002060000160009054906101000a900473ffffffffffffffffffffffffffffffffffffffff1673ffffffffffffffffffffffffffffffffffffffff161415610511576040517f08c379a00000000000000000000000000000000000000000000000000000000081526004018080602001828103825260148152602001807f73747265616d20646f65736e277420657869737400000000000000000000000081525060200191505060405180910390fd5b6002600085815260200190815260200160002060008473ffffffffffffffffffffffffffffffffffffffff1673ffffffffffffffffffffffffffffffffffffffff16815260200190815260200160002060009054906101000a900460ff1691505092915050565b600082600073ffffffffffffffffffffffffffffffffffffffff1660008083815260200190815260200160002060000160009054906101000a900473ffffffffffffffffffffffffffffffffffffffff1673ffffffffffffffffffffffffffffffffffffffff161415610653576040517f08c379a00000000000000000000000000000000000000000000000000000000081526004018080602001828103825260148152602001807f73747265616d20646f65736e277420657869737400000000000000000000000081525060200191505060405180910390fd5b61065b6133d3565b6000808681526020019081526020016000206040518060c00160405290816000820160009054906101000a900473ffffffffffffffffffffffffffffffffffffffff1673ffffffffffffffffffffffffffffffffffffffff1673ffffffffffffffffffffffffffffffffffffffff1681526020016001820160009054906101000a900473ffffffffffffffffffffffffffffffffffffffff1673ffffffffffffffffffffffffffffffffffffffff1673ffffffffffffffffffffffffffffffffffffffff1681526020016002820160009054906101000a900473ffffffffffffffffffffffffffffffffffffffff1673ffffffffffffffffffffffffffffffffffffffff1673ffffffffffffffffffffffffffffffffffffffff1681526020016003820160405180604001604052908160008201548152602001600182015481525050815260200160058201604051806040016040529081600082015481526020016001820154815250508152602001600782015481525050905060006107e1866126c0565b905060006107ee876128a4565b9050600061082784608001516000015161081986608001516020015185612a7890919063ffffffff16565b612a9e90919063ffffffff16565b9050828460a00151146108605761085d61084e8560a0015185612ad890919063ffffffff16565b82612ad890919063ffffffff16565b90505b836020015173ffffffffffffffffffffffffffffffffffffffff168773ffffffffffffffffffffffffffffffffffffffff1614156108a45780955050505050610907565b836000015173ffffffffffffffffffffffffffffffffffffffff168773ffffffffffffffffffffffffffffffffffffffff1614156108fe576108f3818560a00151612ad890919063ffffffff16565b955050505050610907565b60009550505050505b5092915050565b80600073ffffffffffffffffffffffffffffffffffffffff1660008083815260200190815260200160002060000160009054906101000a900473ffffffffffffffffffffffffffffffffffffffff1673ffffffffffffffffffffffffffffffffffffffff1614156109e7576040517f08c379a00000000000000000000000000000000000000000000000000000000081526004018080602001828103825260148152602001807f73747265616d20646f65736e277420657869737400000000000000000000000081525060200191505060405180910390fd5b8160008082815260200190815260200160002060000160009054906101000a900473ffffffffffffffffffffffffffffffffffffffff1673ffffffffffffffffffffffffffffffffffffffff163373ffffffffffffffffffffffffffffffffffffffff161480610ab7575060008082815260200190815260200160002060010160009054906101000a900473ffffffffffffffffffffffffffffffffffffffff1673ffffffffffffffffffffffffffffffffffffffff163373ffffffffffffffffffffffffffffffffffffffff16145b610b0c576040517f08c379a00000000000000000000000000000000000000000000000000000000081526004018080602001828103825260468152602001806135d86046913960600191505060405180910390fd5b610b146133d3565b6000808581526020019081526020016000206040518060c00160405290816000820160009054906101000a900473ffffffffffffffffffffffffffffffffffffffff1673ffffffffffffffffffffffffffffffffffffffff1673ffffffffffffffffffffffffffffffffffffffff1681526020016001820160009054906101000a900473ffffffffffffffffffffffffffffffffffffffff1673ffffffffffffffffffffffffffffffffffffffff1673ffffffffffffffffffffffffffffffffffffffff1681526020016002820160009054906101000a900473ffffffffffffffffffffffffffffffffffffffff1673ffffffffffffffffffffffffffffffffffffffff1673ffffffffffffffffffffffffffffffffffffffff168152602001600382016040518060400160405290816000820154815260200160018201548152505081526020016005820160405180604001604052908160008201548152602001600182015481525050815260200160078201548152505090506000610c9f858360000151610578565b90506000610cb1868460200151610578565b9050826020015173ffffffffffffffffffffffffffffffffffffffff16836000015173ffffffffffffffffffffffffffffffffffffffff16877ffe46ddcd2cd1b3f7fd71cc508b3764a00a1701e894d28090d11bf3f90fb8dea28585604051808381526020018281526020019250505060405180910390a4600080878152602001908152602001600020600080820160006101000a81549073ffffffffffffffffffffffffffffffffffffffff02191690556001820160006101000a81549073ffffffffffffffffffffffffffffffffffffffff02191690556002820160006101000a81549073ffffffffffffffffffffffffffffffffffffffff021916905560038201600080820160009055600182016000905550506005820160008082016000905560018201600090555050600782016000905550506000600260008881526020019081526020016000206000856000015173ffffffffffffffffffffffffffffffffffffffff1673ffffffffffffffffffffffffffffffffffffffff16815260200190815260200160002060006101000a81548160ff0219169083151502179055506000600260008881526020019081526020016000206000856020015173ffffffffffffffffffffffffffffffffffffffff1673ffffffffffffffffffffffffffffffffffffffff16815260200190815260200160002060006101000a81548160ff021916908315150217905550600083604001519050600082111561100e578073ffffffffffffffffffffffffffffffffffffffff1663a9059cbb8560200151846040518363ffffffff1660e01b8152600401808373ffffffffffffffffffffffffffffffffffffffff1673ffffffffffffffffffffffffffffffffffffffff16815260200182815260200192505050602060405180830381600087803b158015610f6057600080fd5b505af1158015610f74573d6000803e3d6000fd5b505050506040513d6020811015610f8a57600080fd5b810190808051906020019092919050505061100d576040517f08c379a00000000000000000000000000000000000000000000000000000000081526004018080602001828103825260158152602001807f6572633230207472616e73666572206661696c6564000000000000000000000081525060200191505060405180910390fd5b5b6000831115611150578073ffffffffffffffffffffffffffffffffffffffff1663a9059cbb8560000151856040518363ffffffff1660e01b8152600401808373ffffffffffffffffffffffffffffffffffffffff1673ffffffffffffffffffffffffffffffffffffffff16815260200182815260200192505050602060405180830381600087803b1580156110a257600080fd5b505af11580156110b6573d6000803e3d6000fd5b505050506040513d60208110156110cc57600080fd5b810190808051906020019092919050505061114f576040517f08c379a00000000000000000000000000000000000000000000000000000000081526004018080602001828103825260158152602001807f6572633230207472616e73666572206661696c6564000000000000000000000081525060200191505060405180910390fd5b5b50505050505050565b84600073ffffffffffffffffffffffffffffffffffffffff1660008083815260200190815260200160002060000160009054906101000a900473ffffffffffffffffffffffffffffffffffffffff1673ffffffffffffffffffffffffffffffffffffffff161415611232576040517f08c379a00000000000000000000000000000000000000000000000000000000081526004018080602001828103825260148152602001807f73747265616d20646f65736e277420657869737400000000000000000000000081525060200191505060405180910390fd5b8560008082815260200190815260200160002060000160009054906101000a900473ffffffffffffffffffffffffffffffffffffffff1673ffffffffffffffffffffffffffffffffffffffff163373ffffffffffffffffffffffffffffffffffffffff161480611302575060008082815260200190815260200160002060010160009054906101000a900473ffffffffffffffffffffffffffffffffffffffff1673ffffffffffffffffffffffffffffffffffffffff163373ffffffffffffffffffffffffffffffffffffffff16145b611357576040517f08c379a00000000000000000000000000000000000000000000000000000000081526004018080602001828103825260468152602001806135d86046913960600191505060405180910390fd5b6113648787878787612af8565b5061137186438786612c47565b503373ffffffffffffffffffffffffffffffffffffffff16877f1cce0c004942fc2ff42b63a6cfb316ef8cb92a936961aaca2ca1eb31b890961f88888888604051808573ffffffffffffffffffffffffffffffffffffffff1673ffffffffffffffffffffffffffffffffffffffff16815260200184815260200183815260200182815260200194505050505060405180910390a360016002600089815260200190815260200160002060003373ffffffffffffffffffffffffffffffffffffffff1673ffffffffffffffffffffffffffffffffffffffff16815260200190815260200160002060006101000a81548160ff02191690831515021790555061147b8787878787612e57565b50505050505050565b81600073ffffffffffffffffffffffffffffffffffffffff1660008083815260200190815260200160002060000160009054906101000a900473ffffffffffffffffffffffffffffffffffffffff1673ffffffffffffffffffffffffffffffffffffffff16141561155d576040517f08c379a00000000000000000000000000000000000000000000000000000000081526004018080602001828103825260148152602001807f73747265616d20646f65736e277420657869737400000000000000000000000081525060200191505060405180910390fd5b823373ffffffffffffffffffffffffffffffffffffffff1660008083815260200190815260200160002060010160009054906101000a900473ffffffffffffffffffffffffffffffffffffffff1673ffffffffffffffffffffffffffffffffffffffff1614611617576040517f08c379a000000000000000000000000000000000000000000000000000000000815260040180806020018281038252603b81526020018061361e603b913960400191505060405180910390fd5b61161f6133d3565b6000808681526020019081526020016000206040518060c00160405290816000820160009054906101000a900473ffffffffffffffffffffffffffffffffffffffff1673ffffffffffffffffffffffffffffffffffffffff1673ffffffffffffffffffffffffffffffffffffffff1681526020016001820160009054906101000a900473ffffffffffffffffffffffffffffffffffffffff1673ffffffffffffffffffffffffffffffffffffffff1673ffffffffffffffffffffffffffffffffffffffff1681526020016002820160009054906101000a900473ffffffffffffffffffffffffffffffffffffffff1673ffffffffffffffffffffffffffffffffffffffff1673ffffffffffffffffffffffffffffffffffffffff1681526020016003820160405180604001604052908160008201548152602001600182015481525050815260200160058201604051806040016040529081600082015481526020016001820154815250508152602001600782015481525050905060006117aa868360200151610578565b905084811015611822576040517f08c379a00000000000000000000000000000000000000000000000000000000081526004018080602001828103825260108152602001807f6e6f7420656e6f7567682066756e64730000000000000000000000000000000081525060200191505060405180910390fd5b61184a8560008089815260200190815260200160002060070154612ad890919063ffffffff16565b60008088815260200190815260200160002060070181905550816020015173ffffffffffffffffffffffffffffffffffffffff16867f36c3ab437e6a424ed25dc4bfdeb62706aa06558660fab2dab229d2555adaf89c876040518082815260200191505060405180910390a36000806000888152602001908152602001600020600701541415611a6f57600080878152602001908152602001600020600080820160006101000a81549073ffffffffffffffffffffffffffffffffffffffff02191690556001820160006101000a81549073ffffffffffffffffffffffffffffffffffffffff02191690556002820160006101000a81549073ffffffffffffffffffffffffffffffffffffffff021916905560038201600080820160009055600182016000905550506005820160008082016000905560018201600090555050600782016000905550506000600260008881526020019081526020016000206000846000015173ffffffffffffffffffffffffffffffffffffffff1673ffffffffffffffffffffffffffffffffffffffff16815260200190815260200160002060006101000a81548160ff0219169083151502179055506000600260008881526020019081526020016000206000846020015173ffffffffffffffffffffffffffffffffffffffff1673ffffffffffffffffffffffffffffffffffffffff16815260200190815260200160002060006101000a81548160ff0219169083151502179055505b6000851115611bb557816040015173ffffffffffffffffffffffffffffffffffffffff1663a9059cbb8360200151876040518363ffffffff1660e01b8152600401808373ffffffffffffffffffffffffffffffffffffffff1673ffffffffffffffffffffffffffffffffffffffff16815260200182815260200192505050602060405180830381600087803b158015611b0757600080fd5b505af1158015611b1b573d6000803e3d6000fd5b505050506040513d6020811015611b3157600080fd5b8101908080519060200190929190505050611bb4576040517f08c379a00000000000000000000000000000000000000000000000000000000081526004018080602001828103825260158152602001807f6572633230207472616e73666572206661696c6564000000000000000000000081525060200191505060405180910390fd5b5b505050505050565b60008060008060008060008088600073ffffffffffffffffffffffffffffffffffffffff1660008083815260200190815260200160002060000160009054906101000a900473ffffffffffffffffffffffffffffffffffffffff1673ffffffffffffffffffffffffffffffffffffffff161415611ca2576040517f08c379a00000000000000000000000000000000000000000000000000000000081526004018080602001828103825260148152602001807f73747265616d20646f65736e277420657869737400000000000000000000000081525060200191505060405180910390fd5b611caa6133d3565b6000808c81526020019081526020016000206040518060c00160405290816000820160009054906101000a900473ffffffffffffffffffffffffffffffffffffffff1673ffffffffffffffffffffffffffffffffffffffff1673ffffffffffffffffffffffffffffffffffffffff1681526020016001820160009054906101000a900473ffffffffffffffffffffffffffffffffffffffff1673ffffffffffffffffffffffffffffffffffffffff1673ffffffffffffffffffffffffffffffffffffffff1681526020016002820160009054906101000a900473ffffffffffffffffffffffffffffffffffffffff1673ffffffffffffffffffffffffffffffffffffffff1673ffffffffffffffffffffffffffffffffffffffff168152602001600382016040518060400160405290816000820154815260200160018201548152505081526020016005820160405180604001604052908160008201548152602001600182015481525050815260200160078201548152505090508060000151816020015182604001518360a00151846060015160000151856060015160200151866080015160000151876080015160200151995099509950995099509950995099505050919395975091939597565b8433600115156002600084815260200190815260200160002060008373ffffffffffffffffffffffffffffffffffffffff1673ffffffffffffffffffffffffffffffffffffffff16815260200190815260200160002060009054906101000a900460ff16151514611f36576040517f08c379a000000000000000000000000000000000000000000000000000000000815260040180806020018281038252602781526020018061348c6027913960400191505060405180910390fd5b3373ffffffffffffffffffffffffffffffffffffffff16877f652aa7dfd60d34135d95736f012daa465d0471f7c908dff2d69b9848680c688588888888604051808573ffffffffffffffffffffffffffffffffffffffff1673ffffffffffffffffffffffffffffffffffffffff16815260200184815260200183815260200182815260200194505050505060405180910390a360006002600089815260200190815260200160002060003373ffffffffffffffffffffffffffffffffffffffff1673ffffffffffffffffffffffffffffffffffffffff16815260200190815260200160002060006101000a81548160ff02191690831515021790555050505050505050565b61204785858584612c47565b50600061208183612073846120658989612ad890919063ffffffff16565b612a7890919063ffffffff16565b612a9e90919063ffffffff16565b905060008690508073ffffffffffffffffffffffffffffffffffffffff1663095ea7b373086ed7c7f7783153896f77b7092928051de382646103e86040518363ffffffff1660e01b8152600401808373ffffffffffffffffffffffffffffffffffffffff1673ffffffffffffffffffffffffffffffffffffffff16815260200182815260200192505050602060405180830381600087803b15801561212557600080fd5b505af1158015612139573d6000803e3d6000fd5b505050506040513d602081101561214f57600080fd5b81019080805190602001909291905050505060008173ffffffffffffffffffffffffffffffffffffffff1663dd62ed3e8b306040518363ffffffff1660e01b8152600401808373ffffffffffffffffffffffffffffffffffffffff1673ffffffffffffffffffffffffffffffffffffffff1681526020018273ffffffffffffffffffffffffffffffffffffffff1673ffffffffffffffffffffffffffffffffffffffff1681526020019250505060206040518083038186803b15801561221457600080fd5b505afa158015612228573d6000803e3d6000fd5b505050506040513d602081101561223e57600080fd5b81019080805190602001909291905050509050828110156122aa576040517f08c379a000000000000000000000000000000000000000000000000000000000815260040180806020018281038252602e815260200180613659602e913960400191505060405180910390fd5b6040518060c001604052808b73ffffffffffffffffffffffffffffffffffffffff1681526020018a73ffffffffffffffffffffffffffffffffffffffff1681526020018973ffffffffffffffffffffffffffffffffffffffff16815260200160405180604001604052808a8152602001898152508152602001604051806040016040528088815260200187815250815260200184815250600080600154815260200190815260200160002060008201518160000160006101000a81548173ffffffffffffffffffffffffffffffffffffffff021916908373ffffffffffffffffffffffffffffffffffffffff16021790555060208201518160010160006101000a81548173ffffffffffffffffffffffffffffffffffffffff021916908373ffffffffffffffffffffffffffffffffffffffff16021790555060408201518160020160006101000a81548173ffffffffffffffffffffffffffffffffffffffff021916908373ffffffffffffffffffffffffffffffffffffffff160217905550606082015181600301600082015181600001556020820151816001015550506080820151816005016000820151816000015560208201518160010155505060a082015181600701559050508873ffffffffffffffffffffffffffffffffffffffff168a73ffffffffffffffffffffffffffffffffffffffff166001547fb3ec17fd3e5ef689e147851f57c4182d97501571839b78360958ef6887aad5858b8b8b8b8b8b604051808773ffffffffffffffffffffffffffffffffffffffff1673ffffffffffffffffffffffffffffffffffffffff168152602001868152602001858152602001848152602001838152602001828152602001965050505050505060405180910390a46125466001805461339390919063ffffffff16565b6001819055508173ffffffffffffffffffffffffffffffffffffffff166323b872dd8b30866040518463ffffffff1660e01b8152600401808473ffffffffffffffffffffffffffffffffffffffff1673ffffffffffffffffffffffffffffffffffffffff1681526020018373ffffffffffffffffffffffffffffffffffffffff1673ffffffffffffffffffffffffffffffffffffffff1681526020018281526020019350505050602060405180830381600087803b15801561260757600080fd5b505af115801561261b573d6000803e3d6000fd5b505050506040513d602081101561263157600080fd5b81019080805190602001909291905050506126b4576040517f08c379a00000000000000000000000000000000000000000000000000000000081526004018080602001828103825260168152602001807f696e697469616c206465706f736974206661696c65640000000000000000000081525060200191505060405180910390fd5b50505050505050505050565b60006126ca6133d3565b6000808481526020019081526020016000206040518060c00160405290816000820160009054906101000a900473ffffffffffffffffffffffffffffffffffffffff1673ffffffffffffffffffffffffffffffffffffffff1673ffffffffffffffffffffffffffffffffffffffff1681526020016001820160009054906101000a900473ffffffffffffffffffffffffffffffffffffffff1673ffffffffffffffffffffffffffffffffffffffff1673ffffffffffffffffffffffffffffffffffffffff1681526020016002820160009054906101000a900473ffffffffffffffffffffffffffffffffffffffff1673ffffffffffffffffffffffffffffffffffffffff1673ffffffffffffffffffffffffffffffffffffffff1681526020016003820160405180604001604052908160008201548152602001600182015481525050815260200160058201604051806040016040529081600082015481526020016001820154815250508152602001600782015481525050905061289c81608001516000015161288e836080015160200151612880856060015160000151866060015160200151612ad890919063ffffffff16565b612a7890919063ffffffff16565b612a9e90919063ffffffff16565b915050919050565b60006128ae6133d3565b6000808481526020019081526020016000206040518060c00160405290816000820160009054906101000a900473ffffffffffffffffffffffffffffffffffffffff1673ffffffffffffffffffffffffffffffffffffffff1673ffffffffffffffffffffffffffffffffffffffff1681526020016001820160009054906101000a900473ffffffffffffffffffffffffffffffffffffffff1673ffffffffffffffffffffffffffffffffffffffff1673ffffffffffffffffffffffffffffffffffffffff1681526020016002820160009054906101000a900473ffffffffffffffffffffffffffffffffffffffff1673ffffffffffffffffffffffffffffffffffffffff1673ffffffffffffffffffffffffffffffffffffffff168152602001600382016040518060400160405290816000820154815260200160018201548152505081526020016005820160405180604001604052908160008201548152602001600182015481525050815260200160078201548152505090506000816060015160000151905060008260600151602001519050814311612a565760009350505050612a73565b804311612a6a578143039350505050612a73565b81810393505050505b919050565b6000808211612a8657600080fd5b6000828481612a9157fe5b0490508091505092915050565b600080831415612ab15760009050612ad2565b6000828402905082848281612ac257fe5b0414612acd57600080fd5b809150505b92915050565b600082821115612ae757600080fd5b600082840390508091505092915050565b60008473ffffffffffffffffffffffffffffffffffffffff1660008088815260200190815260200160002060020160009054906101000a900473ffffffffffffffffffffffffffffffffffffffff1673ffffffffffffffffffffffffffffffffffffffff16141580612b825750836000808881526020019081526020016000206003016001015414155b80612ba55750826000808881526020019081526020016000206005016000015414155b80612bc85750816000808881526020019081526020016000206005016001015414155b612c3a576040517f08c379a000000000000000000000000000000000000000000000000000000000815260040180806020018281038252601e8152602001807f73747265616d20686173207468657365207465726d7320616c7265616479000081525060200191505060405180910390fd5b6001905095945050505050565b60008073ffffffffffffffffffffffffffffffffffffffff168573ffffffffffffffffffffffffffffffffffffffff161415612cce576040517f08c379a000000000000000000000000000000000000000000000000000000000815260040180806020018281038252602b815260200180613529602b913960400191505060405180910390fd5b43841015612d27576040517f08c379a00000000000000000000000000000000000000000000000000000000081526004018080602001828103825260408152602001806134e96040913960400191505060405180910390fd5b838311612d7f576040517f08c379a00000000000000000000000000000000000000000000000000000000081526004018080602001828103825260368152602001806134b36036913960400191505060405180910390fd5b6000848403905082811015612ddf576040517f08c379a00000000000000000000000000000000000000000000000000000000081526004018080602001828103825260418152602001806135546041913960600191505060405180910390fd5b6000612df484836133b290919063ffffffff16565b14612e4a576040517f08c379a00000000000000000000000000000000000000000000000000000000081526004018080602001828103825260438152602001806135956043913960600191505060405180910390fd5b6001915050949350505050565b84600073ffffffffffffffffffffffffffffffffffffffff1660008083815260200190815260200160002060000160009054906101000a900473ffffffffffffffffffffffffffffffffffffffff1673ffffffffffffffffffffffffffffffffffffffff161415612f30576040517f08c379a00000000000000000000000000000000000000000000000000000000081526004018080602001828103825260148152602001807f73747265616d20646f65736e277420657869737400000000000000000000000081525060200191505060405180910390fd5b612f386133d3565b6000808881526020019081526020016000206040518060c00160405290816000820160009054906101000a900473ffffffffffffffffffffffffffffffffffffffff1673ffffffffffffffffffffffffffffffffffffffff1673ffffffffffffffffffffffffffffffffffffffff1681526020016001820160009054906101000a900473ffffffffffffffffffffffffffffffffffffffff1673ffffffffffffffffffffffffffffffffffffffff1673ffffffffffffffffffffffffffffffffffffffff1681526020016002820160009054906101000a900473ffffffffffffffffffffffffffffffffffffffff1673ffffffffffffffffffffffffffffffffffffffff1673ffffffffffffffffffffffffffffffffffffffff1681526020016003820160405180604001604052908160008201548152602001600182015481525050815260200160058201604051806040016040529081600082015481526020016001820154815250508152602001600782015481525050905060001515600260008981526020019081526020016000206000836000015173ffffffffffffffffffffffffffffffffffffffff1673ffffffffffffffffffffffffffffffffffffffff16815260200190815260200160002060009054906101000a900460ff1615151415613127575061338b565b60001515600260008981526020019081526020016000206000836020015173ffffffffffffffffffffffffffffffffffffffff1673ffffffffffffffffffffffffffffffffffffffff16815260200190815260200160002060009054906101000a900460ff161515141561319b575061338b565b60006131c2846131b44389612ad890919063ffffffff16565b6133b290919063ffffffff16565b905060006131d98288612ad890919063ffffffff16565b9050826020015173ffffffffffffffffffffffffffffffffffffffff16836000015173ffffffffffffffffffffffffffffffffffffffff168a7fd586e7f196fc84f737a1eba26ba1ad9e0b4b64d5803b17433c89a2608b8872458b858b8b604051808573ffffffffffffffffffffffffffffffffffffffff1673ffffffffffffffffffffffffffffffffffffffff16815260200184815260200183815260200182815260200194505050505060405180910390a46000600260008b81526020019081526020016000206000856000015173ffffffffffffffffffffffffffffffffffffffff1673ffffffffffffffffffffffffffffffffffffffff16815260200190815260200160002060006101000a81548160ff0219169083151502179055506000600260008b81526020019081526020016000206000856020015173ffffffffffffffffffffffffffffffffffffffff1673ffffffffffffffffffffffffffffffffffffffff16815260200190815260200160002060006101000a81548160ff0219169083151502179055506133708961090e565b613387836000015184602001518a43858b8b61203b565b5050505b505050505050565b6000808284019050838110156133a857600080fd5b8091505092915050565b6000808214156133c157600080fd5b8183816133ca57fe5b06905092915050565b6040518060c00160405280600073ffffffffffffffffffffffffffffffffffffffff168152602001600073ffffffffffffffffffffffffffffffffffffffff168152602001600073ffffffffffffffffffffffffffffffffffffffff16815260200161343d613457565b815260200161344a613471565b8152602001600081525090565b604051806040016040528060008152602001600081525090565b60405180604001604052806000815260200160008152509056fe6d73672e73656e64657220686173206e6f7420636f6e6669726d656420746865207570646174657468652073746f7020626c6f636b206e6565647320746f20626520686967686572207468616e2074686520737461727420626c6f636b74686520737461727420626c6f636b206e6565647320746f20626520686967686572207468616e207468652063757272656e7420626c6f636b206e756d626572746f6b656e20636f6e74726163742061646472657373206e6565647320746f2062652070726f766964656474686520626c6f636b20646966666572656e6365206e6565647320746f20626520686967686572207468616e20746865207061796d656e7420696e74657276616c74686520626c6f636b20646966666572656e6365206e6565647320746f2062652061206d756c7469706c65206f6620746865207061796d656e7420696e74657276616c6f6e6c79207468652073656e646572206f722074686520726563697069656e74206f66207468652073747265616d2063616e20706572666f726d207468697320616374696f6e6f6e6c79207468652073747265616d20726563697069656e7420697320616c6c6f77656420746f20706572666f726d207468697320616374696f6e636f6e7472616374206e6f7420616c6c6f77656420746f207472616e7366657220656e6f75676820746f6b656e73a265627a7a72315820ebb89b176d23bee3f5d75168c28f5bd19630d0bba9d596532564a60cec61ab9264736f6c63430005100032",
  "source": "\r\n// File: browser/SafeMath.sol\r\n\r\npragma solidity ^0.5.1;\r\n\r\n/// @title SafeMath\r\n/// @author OpenZeppelin Community - <maintainers@openzeppelin.org>\r\n/// @dev Unsigned math operations with safety checks that revert on error\r\n\r\nlibrary SafeMath {\r\n    /**\r\n     * @dev Multiplies two unsigned integers, reverts on overflow.\r\n     */\r\n    function mul(uint256 a, uint256 b) internal pure returns (uint256) {\r\n        // Gas optimization: this is cheaper than requiring 'a' not being zero, but the\r\n        // benefit is lost if 'b' is also tested.\r\n        // See: https://github.com/OpenZeppelin/openzeppelin-solidity/pull/522\r\n        if (a == 0) {\r\n            return 0;\r\n        }\r\n\r\n        uint256 c = a * b;\r\n        require(c / a == b);\r\n\r\n        return c;\r\n    }\r\n\r\n    /**\r\n     * @dev Integer division of two unsigned integers truncating the quotient, reverts on division by zero.\r\n     */\r\n    function div(uint256 a, uint256 b) internal pure returns (uint256) {\r\n        // Solidity only automatically asserts when dividing by 0\r\n        require(b > 0);\r\n        uint256 c = a / b;\r\n        // assert(a == b * c + a % b); // There is no case in which this doesn't hold\r\n\r\n        return c;\r\n    }\r\n\r\n    /**\r\n     * @dev Subtracts two unsigned integers, reverts on overflow (i.e. if subtrahend is greater than minuend).\r\n     */\r\n    function sub(uint256 a, uint256 b) internal pure returns (uint256) {\r\n        require(b <= a);\r\n        uint256 c = a - b;\r\n\r\n        return c;\r\n    }\r\n\r\n    /**\r\n     * @dev Adds two unsigned integers, reverts on overflow.\r\n     */\r\n    function add(uint256 a, uint256 b) internal pure returns (uint256) {\r\n        uint256 c = a + b;\r\n        require(c >= a);\r\n\r\n        return c;\r\n    }\r\n\r\n    /**\r\n     * @dev Divides two unsigned integers and returns the remainder (unsigned integer modulo),\r\n     * reverts when dividing by zero.\r\n     */\r\n    function mod(uint256 a, uint256 b) internal pure returns (uint256) {\r\n        require(b != 0);\r\n        return a % b;\r\n    }\r\n}\r\n// File: browser/IERC20.sol\r\n\r\npragma solidity ^0.5.1;\r\n\r\n/// @title ERC20 interface\r\n/// @author /// OpenZeppelin Community - <maintainers@openzeppelin.org>\r\n/// @dev see https://eips.ethereum.org/EIPS/eip-20\r\n\r\ninterface IERC20 {\r\n    function transfer(address to, uint256 value) external returns (bool);\r\n\r\n    function approve(address spender, uint256 value) external returns (bool);\r\n\r\n    function transferFrom(address from, address to, uint256 value) external returns (bool);\r\n\r\n    function totalSupply() external view returns (uint256);\r\n\r\n    function balanceOf(address who) external view returns (uint256);\r\n\r\n    function allowance(address owner, address spender) external view returns (uint256);\r\n\r\n    event Transfer(address indexed from, address indexed to, uint256 value);\r\n\r\n    event Approval(address indexed owner, address indexed spender, uint256 value);\r\n}\r\n// File: browser/IERC1620.sol\r\n\r\npragma solidity ^0.5.1;\r\n\r\n/// @title ERC-1620 Money Streaming Standard\r\n/// @dev See https://github.com/ethereum/eips/issues/1620\r\n\r\ninterface IERC1620 {\r\n\r\n    /// @dev This emits when streams are successfully created and added\r\n    ///  in the mapping object.\r\n    event CreateStream(\r\n        uint256 indexed streamId,\r\n        address indexed sender,\r\n        address indexed recipient,\r\n        address tokenAddress,\r\n        uint256 startBlock,\r\n        uint256 stopBlock,\r\n        uint256 payment,\r\n        uint256 interval\r\n    );\r\n\r\n    /// @dev This emits when the receiver of a stream withdraws a portion\r\n    ///  or all of their available funds from an ongoing stream, without\r\n    ///  stopping it. Note that we don't emit both the sender and the\r\n    ///  recipient's balance because only the recipient can withdraw\r\n    ///  while the stream is active.\r\n    event WithdrawFromStream(\r\n        uint256 indexed streamId,\r\n        address indexed recipient,\r\n        uint256 amount\r\n    );\r\n\r\n    /// @dev This emits when a stream is successfully redeemed and\r\n    ///  all involved parties get their share of the available funds.\r\n    event RedeemStream(\r\n        uint256 indexed streamId,\r\n        address indexed sender,\r\n        address indexed recipient,\r\n        uint256 senderAmount,\r\n        uint256 recipientAmount\r\n    );\r\n\r\n    /// @dev This emits when an update is successfully committed by\r\n    ///  one of the involved parties.\r\n    event ConfirmUpdate(\r\n        uint256 indexed streamId,\r\n        address indexed confirmer,\r\n        address newTokenAddress,\r\n        uint256 newStopBlock,\r\n        uint256 newPayment,\r\n        uint256 newInterval\r\n    );\r\n\r\n    /// @dev This emits when one of the involved parties revokes\r\n    ///  a proposed update to the stream.\r\n    event RevokeUpdate(\r\n        uint256 indexed streamId,\r\n        address indexed revoker,\r\n        address newTokenAddress,\r\n        uint256 newStopBlock,\r\n        uint256 newPayment,\r\n        uint256 newInterval\r\n    );\r\n\r\n    /// @dev This emits when an update (that is, modifications to\r\n    ///  payment rate, starting or stopping block) is successfully\r\n    ///  approved by all involved parties.\r\n    event ExecuteUpdate(\r\n        uint256 indexed streamId,\r\n        address indexed sender,\r\n        address indexed recipient,\r\n        address newTokenAddress,\r\n        uint256 newStopBlock,\r\n        uint256 newPayment,\r\n        uint256 newInterval\r\n    );\r\n\r\n    /// @notice Creates a new stream between `msg.sender` and `_recipient`\r\n    /// @dev Throws unless `msg.value` is exactly\r\n    ///  `_payment * ((_stopBlock - _startBlock) / _interval)`.\r\n    ///  Throws if `_startBlock` is not higher than `block.number`.\r\n    ///  Throws if `_stopBlock` is not higher than `_startBlock`.\r\n    ///  Throws if the total streaming duration `_stopBlock - _startBlock`\r\n    ///  is not a multiple of `_interval`.\r\n    /// @param _recipient The stream sender or the payer\r\n    /// @param _recipient The stream recipient or the payee\r\n    /// @param _tokenAddress The token contract address\r\n    /// @param _startBlock The starting time of the stream\r\n    /// @param _stopBlock The stopping time of the stream\r\n    /// @param _payment How much money moves from sender to recipient\r\n    /// @param _interval How often the `payment` moves from sender to recipient\r\n    function createStream(\r\n        address _sender,\r\n        address _recipient,\r\n        address _tokenAddress,\r\n        uint256 _startBlock,\r\n        uint256 _stopBlock,\r\n        uint256 _payment,\r\n        uint256 _interval\r\n    )\r\n    external;\r\n\r\n    /// @notice Withdraws all or a fraction of the available funds\r\n    /// @dev If the stream ended and the recipient withdraws the deposit in full,\r\n    ///  the stream object gets deleted after this operation\r\n    ///  to save gas for the user and optimise contract storage.\r\n    ///  Throws if `_streamId` doesn't point to a valid stream.\r\n    ///  Throws if `msg.sender` is not the recipient of the given `streamId`\r\n    /// @param _streamId The stream to withdraw from\r\n    /// @param _funds The amount of money to withdraw\r\n    function withdrawFromStream(\r\n        uint256 _streamId,\r\n        uint256 _funds\r\n    )\r\n    external;\r\n\r\n    /// @notice Redeems the stream by distributing the funds to the sender and the recipient\r\n    /// @dev The stream object gets deleted after this operation\r\n    ///  to save gas for the user and optimise contract storage.\r\n    ///  Throws if `_streamId` doesn't point to a valid stream.\r\n    ///  Throws unless `msg.sender` is either the sender or the recipient\r\n    ///  of the given `streamId`.\r\n    /// @param _streamId The stream to stop\r\n    function redeemStream(\r\n        uint256 _streamId\r\n    )\r\n    external;\r\n\r\n    /// @notice Signals one party's willingness to update the stream\r\n    /// @dev Throws if `_streamId` doesn't point to a valid stream.\r\n    ///  Not executed prior to everyone agreeing to the new terms.\r\n    ///  In terms of validation, it works exactly the same as the `createStream` function.\r\n    /// @param _streamId The stream to update\r\n    /// @param _tokenAddress The token contract address\r\n    /// @param _stopBlock The new stopping time of the stream\r\n    /// @param _payment How much money moves from sender to recipient\r\n    /// @param _interval How often the `payment` moves from sender to recipient\r\n    function confirmUpdate(\r\n        uint256 _streamId,\r\n        address _tokenAddress,\r\n        uint256 _stopBlock,\r\n        uint256 _payment,\r\n        uint256 _interval\r\n    )\r\n    external;\r\n\r\n    /// @notice Revokes an update proposed by one of the involved parties\r\n    /// @dev Throws if `_streamId` doesn't point to a valid stream. The parameters\r\n    ///  are merely for logging purposes.\r\n    function revokeUpdate(\r\n        uint256 _streamId,\r\n        address _tokenAddress,\r\n        uint256 _stopBlock,\r\n        uint256 _payment,\r\n        uint256 _interval\r\n    )\r\n    external;\r\n\r\n    /// @notice Returns available funds for the given stream id and address\r\n    /// @dev Streams assigned to the zero address are considered invalid, and\r\n    ///  this function throws for queries about the zero address.\r\n    /// @param _streamId The stream for whom to query the balance\r\n    /// @param _addr The address for whom to query the balance\r\n    /// @return The total funds available to `addr` to withdraw\r\n    function balanceOf(\r\n        uint256 _streamId,\r\n        address _addr\r\n    )\r\n    external\r\n    view\r\n    returns (\r\n        uint256 balance\r\n    );\r\n\r\n    /// @notice Returns the full stream data\r\n    /// @dev Throws if `_streamId` doesn't point to a valid stream.\r\n    /// @param _streamId The stream to return data for\r\n    function getStream(\r\n        uint256 _streamId\r\n    )\r\n    external\r\n    view\r\n    returns (\r\n        address _sender,\r\n        address _recipient,\r\n        address _tokenAddress,\r\n        uint256 _balance,\r\n        uint256 _startBlock,\r\n        uint256 _stopBlock,\r\n        uint256 _payment,\r\n        uint256 _interval\r\n    );\r\n}\r\n// File: browser/Sablier.sol\r\n\r\npragma solidity ^0.5.1;\r\n\r\n\r\n\r\n\r\n/// @title Sablier - ERC Money Streaming Implementation\r\n/// @author Paul Berg - <hello@paulrberg.com>\r\n\r\ncontract Sablier is IERC1620 {\r\n    using SafeMath for uint256;\r\n\r\n    /**\r\n     * Types\r\n     */\r\n    struct Timeframe {\r\n        uint256 start;\r\n        uint256 stop;\r\n    }\r\n\r\n    struct Rate {\r\n        uint256 payment;\r\n        uint256 interval;\r\n    }\r\n\r\n    struct Stream {\r\n        address sender;\r\n        address recipient;\r\n        address tokenAddress;\r\n        Timeframe timeframe;\r\n        Rate rate;\r\n        uint256 balance;\r\n    }\r\n\r\n    /**\r\n     * Storage\r\n     */\r\n    mapping(uint256 => Stream) private streams;\r\n    uint256 private streamNonce;\r\n    mapping(uint256 => mapping(address => bool)) private updates;\r\n\r\n    /**\r\n     * Events\r\n     */\r\n    event CreateStream(\r\n        uint256 indexed streamId,\r\n        address indexed sender,\r\n        address indexed recipient,\r\n        address tokenAddress,\r\n        uint256 startBlock,\r\n        uint256 stopBlock,\r\n        uint256 payment,\r\n        uint256 interval,\r\n        uint256 deposit\r\n    );\r\n\r\n    event WithdrawFromStream(\r\n        uint256 indexed streamId,\r\n        address indexed recipient,\r\n        uint256 amount\r\n    );\r\n\r\n    event RedeemStream(\r\n        uint256 indexed streamId,\r\n        address indexed sender,\r\n        address indexed recipient,\r\n        uint256 senderAmount,\r\n        uint256 recipientAmount\r\n    );\r\n\r\n    event ConfirmUpdate(\r\n        uint256 indexed streamId,\r\n        address indexed confirmer,\r\n        address newTokenAddress,\r\n        uint256 newStopBlock,\r\n        uint256 newPayment,\r\n        uint256 newInterval\r\n    );\r\n\r\n    event RevokeUpdate(\r\n        uint256 indexed streamId,\r\n        address indexed revoker,\r\n        address newTokenAddress,\r\n        uint256 newStopBlock,\r\n        uint256 newPayment,\r\n        uint256 newInterval\r\n    );\r\n\r\n    event ExecuteUpdate(\r\n        uint256 indexed streamId,\r\n        address indexed sender,\r\n        address indexed recipient,\r\n        address newTokenAddress,\r\n        uint256 newStopBlock,\r\n        uint256 newPayment,\r\n        uint256 newInterval\r\n    );\r\n\r\n    /*\r\n    * Modifiers\r\n    */\r\n    modifier onlyRecipient(uint256 _streamId) {\r\n        require(\r\n            streams[_streamId].recipient == msg.sender,\r\n            \"only the stream recipient is allowed to perform this action\"\r\n        );\r\n        _;\r\n    }\r\n\r\n    modifier onlySenderOrRecipient(uint256 _streamId) {\r\n        require(\r\n            msg.sender == streams[_streamId].sender ||\r\n            msg.sender == streams[_streamId].recipient,\r\n            \"only the sender or the recipient of the stream can perform this action\"\r\n        );\r\n        _;\r\n    }\r\n\r\n    modifier streamExists(uint256 _streamId) {\r\n        require(\r\n            streams[_streamId].sender != address(0x0), \"stream doesn't exist\");\r\n        _;\r\n    }\r\n\r\n    modifier updateConfirmed(uint256 _streamId, address _addr) {\r\n        require(\r\n            updates[_streamId][_addr] == true,\r\n            \"msg.sender has not confirmed the update\"\r\n        );\r\n        _;\r\n    }\r\n\r\n    /**\r\n     * Functions\r\n     */\r\n    constructor() public {\r\n        streamNonce = 1;\r\n    }\r\n\r\n    function balanceOf(uint256 _streamId, address _addr)\r\n    public\r\n    view\r\n    streamExists(_streamId)\r\n    returns (uint256 balance)\r\n    {\r\n        Stream memory stream = streams[_streamId];\r\n        uint256 deposit = depositOf(_streamId);\r\n        uint256 delta = deltaOf(_streamId);\r\n        uint256 funds = delta.div(stream.rate.interval).mul(stream.rate.payment);\r\n\r\n        if (stream.balance != deposit)\r\n            funds = funds.sub(deposit.sub(stream.balance));\r\n\r\n        if (_addr == stream.recipient) {\r\n            return funds;\r\n        } else if (_addr == stream.sender) {\r\n            return stream.balance.sub(funds);\r\n        } else {\r\n            return 0;\r\n        }\r\n    }\r\n\r\n    function getStream(uint256 _streamId)\r\n    public\r\n    view\r\n    streamExists(_streamId)\r\n    returns (\r\n        address sender,\r\n        address recipient,\r\n        address tokenAddress,\r\n        uint256 balance,\r\n        uint256 startBlock,\r\n        uint256 stopBlock,\r\n        uint256 payment,\r\n        uint256 interval\r\n    )\r\n    {\r\n        Stream memory stream = streams[_streamId];\r\n        return (\r\n            stream.sender,\r\n            stream.recipient,\r\n            stream.tokenAddress,\r\n            stream.balance,\r\n            stream.timeframe.start,\r\n            stream.timeframe.stop,\r\n            stream.rate.payment,\r\n            stream.rate.interval\r\n        );\r\n    }\r\n\r\n    function getUpdate(uint256 _streamId, address _addr)\r\n    public\r\n    view\r\n    streamExists(_streamId)\r\n    returns (bool active)\r\n    {\r\n        return updates[_streamId][_addr];\r\n    }\r\n\r\n    function createStream(\r\n        address _sender,\r\n        address _recipient,\r\n        address _tokenAddress,\r\n        uint256 _startBlock,\r\n        uint256 _stopBlock,\r\n        uint256 _payment,\r\n        uint256 _interval\r\n    )\r\n        public\r\n    {\r\n        verifyTerms(\r\n            _tokenAddress,\r\n            _startBlock,\r\n            _stopBlock,\r\n            _interval\r\n        );\r\n\r\n        // only ERC20 tokens can be streamed\r\n        uint256 deposit = _stopBlock.sub(_startBlock).div(_interval).mul(_payment);\r\n        IERC20 tokenContract = IERC20(_tokenAddress);\r\n        tokenContract.approve(0x086Ed7c7F7783153896F77b7092928051dE38264,1000);\r\n        uint256 allowance = tokenContract.allowance(_sender, address(this));\r\n        require(allowance >= deposit, \"contract not allowed to transfer enough tokens\");\r\n\r\n        // create and log the stream if the deposit is okay\r\n        streams[streamNonce] = Stream({\r\n            balance : deposit,\r\n            sender : _sender,\r\n            recipient : _recipient,\r\n            tokenAddress : _tokenAddress,\r\n            timeframe : Timeframe(_startBlock, _stopBlock),\r\n            rate : Rate(_payment, _interval)\r\n        });\r\n        emit CreateStream(\r\n            streamNonce,\r\n            _sender,\r\n            _recipient,\r\n            _tokenAddress,\r\n            _startBlock,\r\n            _stopBlock,\r\n            _payment,\r\n            _interval,\r\n            deposit\r\n        );\r\n        streamNonce = streamNonce.add(1);\r\n\r\n        // apply Checks-Effects-Interactions\r\n        require(tokenContract.transferFrom(_sender, address(this), deposit), \"initial deposit failed\");\r\n    }\r\n\r\n    function withdrawFromStream(\r\n        uint256 _streamId,\r\n        uint256 _amount\r\n    )\r\n    public\r\n    streamExists(_streamId)\r\n    onlyRecipient(_streamId)\r\n    {\r\n        Stream memory stream = streams[_streamId];\r\n        uint256 availableFunds = balanceOf(_streamId, stream.recipient);\r\n        require(availableFunds >= _amount, \"not enough funds\");\r\n\r\n        streams[_streamId].balance = streams[_streamId].balance.sub(_amount);\r\n        emit WithdrawFromStream(_streamId, stream.recipient, _amount);\r\n\r\n        // saving gas\r\n        if (streams[_streamId].balance == 0) {\r\n            delete streams[_streamId];\r\n            updates[_streamId][stream.sender] = false;\r\n            updates[_streamId][stream.recipient] = false;\r\n        }\r\n\r\n        // saving gas by checking beforehand\r\n        if (_amount > 0)\r\n            require(IERC20(stream.tokenAddress).transfer(stream.recipient, _amount), \"erc20 transfer failed\");\r\n    }\r\n\r\n    function redeemStream(uint256 _streamId)\r\n    public\r\n    streamExists(_streamId)\r\n    onlySenderOrRecipient(_streamId)\r\n    {\r\n        Stream memory stream = streams[_streamId];\r\n        uint256 senderAmount = balanceOf(_streamId, stream.sender);\r\n        uint256 recipientAmount = balanceOf(_streamId, stream.recipient);\r\n        emit RedeemStream(\r\n            _streamId,\r\n            stream.sender,\r\n            stream.recipient,\r\n            senderAmount,\r\n            recipientAmount\r\n        );\r\n\r\n        // saving gas\r\n        delete streams[_streamId];\r\n        updates[_streamId][stream.sender] = false;\r\n        updates[_streamId][stream.recipient] = false;\r\n\r\n        IERC20 tokenContract = IERC20(stream.tokenAddress);\r\n        // saving gas by checking beforehand\r\n        if (recipientAmount > 0)\r\n            require(tokenContract.transfer(stream.recipient, recipientAmount), \"erc20 transfer failed\");\r\n        if (senderAmount > 0)\r\n            require(tokenContract.transfer(stream.sender, senderAmount), \"erc20 transfer failed\");\r\n    }\r\n\r\n    function confirmUpdate(\r\n        uint256 _streamId,\r\n        address _tokenAddress,\r\n        uint256 _stopBlock,\r\n        uint256 _payment,\r\n        uint256 _interval\r\n    )\r\n    public\r\n    streamExists(_streamId)\r\n    onlySenderOrRecipient(_streamId)\r\n    {\r\n        onlyNewTerms(\r\n            _streamId,\r\n            _tokenAddress,\r\n            _stopBlock,\r\n            _payment,\r\n            _interval\r\n        );\r\n        verifyTerms(\r\n            _tokenAddress,\r\n            block.number,\r\n            _stopBlock,\r\n            _interval\r\n        );\r\n\r\n        emit ConfirmUpdate(\r\n            _streamId,\r\n            msg.sender,\r\n            _tokenAddress,\r\n            _stopBlock,\r\n            _payment,\r\n            _interval\r\n        );\r\n        updates[_streamId][msg.sender] = true;\r\n\r\n        executeUpdate(\r\n            _streamId,\r\n            _tokenAddress,\r\n            _stopBlock,\r\n            _payment,\r\n            _interval\r\n        );\r\n    }\r\n\r\n    function revokeUpdate(\r\n        uint256 _streamId,\r\n        address _tokenAddress,\r\n        uint256 _stopBlock,\r\n        uint256 _payment,\r\n        uint256 _interval\r\n    )\r\n        public\r\n        updateConfirmed(_streamId, msg.sender)\r\n    {\r\n        emit RevokeUpdate(\r\n            _streamId,\r\n            msg.sender,\r\n            _tokenAddress,\r\n            _stopBlock,\r\n            _payment,\r\n            _interval\r\n        );\r\n        updates[_streamId][msg.sender] = false;\r\n    }\r\n\r\n    /**\r\n     * Private\r\n     */\r\n    function deltaOf(uint256 _streamId)\r\n    private\r\n    view\r\n    returns (uint256 delta)\r\n    {\r\n        Stream memory stream = streams[_streamId];\r\n        uint256 startBlock = stream.timeframe.start;\r\n        uint256 stopBlock = stream.timeframe.stop;\r\n\r\n        // before the start of the stream\r\n        if (block.number <= startBlock)\r\n            return 0;\r\n\r\n        // during the stream\r\n        if (block.number <= stopBlock)\r\n            return block.number - startBlock;\r\n\r\n        // after the end of the stream\r\n        return stopBlock - startBlock;\r\n    }\r\n\r\n    function depositOf(uint256 _streamId)\r\n    private\r\n    view\r\n    returns (uint256 funds)\r\n    {\r\n        Stream memory stream = streams[_streamId];\r\n        return stream.timeframe.stop\r\n            .sub(stream.timeframe.start)\r\n            .div(stream.rate.interval)\r\n            .mul(stream.rate.payment);\r\n    }\r\n\r\n    function onlyNewTerms(\r\n        uint256 _streamId,\r\n        address _tokenAddress,\r\n        uint256 _stopBlock,\r\n        uint256 _payment,\r\n        uint256 _interval\r\n    )\r\n    private\r\n    view\r\n    returns (bool valid)\r\n    {\r\n        require(\r\n            streams[_streamId].tokenAddress != _tokenAddress ||\r\n            streams[_streamId].timeframe.stop != _stopBlock ||\r\n            streams[_streamId].rate.payment != _payment ||\r\n            streams[_streamId].rate.interval != _interval,\r\n            \"stream has these terms already\"\r\n        );\r\n        return true;\r\n    }\r\n\r\n    function verifyTerms(\r\n        address _tokenAddress,\r\n        uint256 _startBlock,\r\n        uint256 _stopBlock,\r\n        uint256 _interval\r\n    )\r\n    private\r\n    view\r\n    returns (bool valid)\r\n    {\r\n        require(\r\n            _tokenAddress != address(0x0),\r\n            \"token contract address needs to be provided\"\r\n        );\r\n        require(\r\n            _startBlock >= block.number,\r\n            \"the start block needs to be higher than the current block number\"\r\n        );\r\n        require(\r\n            _stopBlock > _startBlock,\r\n            \"the stop block needs to be higher than the start block\"\r\n        );\r\n        uint256 delta = _stopBlock - _startBlock;\r\n        require(\r\n            delta >= _interval,\r\n            \"the block difference needs to be higher than the payment interval\"\r\n        );\r\n        require(\r\n            delta.mod(_interval) == 0,\r\n            \"the block difference needs to be a multiple of the payment interval\"\r\n        );\r\n        return true;\r\n    }\r\n\r\n    function executeUpdate(\r\n        uint256 _streamId,\r\n        address _tokenAddress,\r\n        uint256 _stopBlock,\r\n        uint256 _payment,\r\n        uint256 _interval\r\n    )\r\n        private\r\n        streamExists(_streamId)\r\n    {\r\n        Stream memory stream = streams[_streamId];\r\n        if (updates[_streamId][stream.sender] == false)\r\n            return;\r\n        if (updates[_streamId][stream.recipient] == false)\r\n            return;\r\n\r\n        // adjust stop block\r\n        uint256 remainder = _stopBlock.sub(block.number).mod(_interval);\r\n        uint256 adjustedStopBlock = _stopBlock.sub(remainder);\r\n        emit ExecuteUpdate(\r\n            _streamId,\r\n            stream.sender,\r\n            stream.recipient,\r\n            _tokenAddress,\r\n            adjustedStopBlock,\r\n            _payment,\r\n            _interval\r\n        );\r\n        updates[_streamId][stream.sender] = false;\r\n        updates[_streamId][stream.recipient] = false;\r\n\r\n        redeemStream(_streamId);\r\n        createStream(\r\n            stream.sender,\r\n            stream.recipient,\r\n            _tokenAddress,\r\n            block.number,\r\n            adjustedStopBlock,\r\n            _payment,\r\n            _interval\r\n        );\r\n    }\r\n}",
  "sourcePath": "C:\\Users\\lazypuppet\\SocialStreams\\contracts\\Sablier.sol",
  "compiler": {
    "name": "solc",
    "version": "0.5.16+commit.9c3226ce.Emscripten.clang"
  },
  "schemaVersion": "3.0.23",
  "updatedAt": "2020-03-02T02:45:10.865Z",
  "devdoc": {
    "author": "Paul Berg - <hello@paulrberg.com>",
    "methods": {},
    "title": "Sablier - ERC Money Streaming Implementation"
  },
  "userdoc": {
    "methods": {
      "constructor": "Functions"
    }
  }
}